{
  "address": "0x19604C37bc3C06ff64c5eFBAcB3155efB34aA02e",
  "abi": [
    {
      "inputs": [
        {
          "internalType": "uint256",
          "name": "seed",
          "type": "uint256"
        }
      ],
      "name": "claimWin",
      "outputs": [
        {
          "internalType": "bool",
          "name": "",
          "type": "bool"
        }
      ],
      "stateMutability": "nonpayable",
      "type": "function"
    },
    {
      "inputs": [
        {
          "internalType": "uint256[4]",
          "name": "arr",
          "type": "uint256[4]"
        }
      ],
      "name": "countUnique",
      "outputs": [
        {
          "internalType": "uint256",
          "name": "",
          "type": "uint256"
        }
      ],
      "stateMutability": "pure",
      "type": "function"
    },
    {
      "inputs": [
        {
          "internalType": "uint256",
          "name": "seed",
          "type": "uint256"
        }
      ],
      "name": "generatePermutation",
      "outputs": [
        {
          "internalType": "uint256[7][7]",
          "name": "board",
          "type": "uint256[7][7]"
        }
      ],
      "stateMutability": "pure",
      "type": "function"
    },
    {
      "inputs": [
        {
          "internalType": "uint256",
          "name": "seed",
          "type": "uint256"
        },
        {
          "internalType": "uint256",
          "name": "targetCard",
          "type": "uint256"
        },
        {
          "internalType": "uint256[2]",
          "name": "guessCoordinates",
          "type": "uint256[2]"
        }
      ],
      "name": "guess",
      "outputs": [
        {
          "internalType": "bool",
          "name": "",
          "type": "bool"
        }
      ],
      "stateMutability": "nonpayable",
      "type": "function"
    },
    {
      "inputs": [
        {
          "internalType": "uint256",
          "name": "",
          "type": "uint256"
        }
      ],
      "name": "maxNumCorrectPerBoard",
      "outputs": [
        {
          "internalType": "uint256",
          "name": "",
          "type": "uint256"
        }
      ],
      "stateMutability": "view",
      "type": "function"
    },
    {
      "inputs": [
        {
          "internalType": "uint256",
          "name": "",
          "type": "uint256"
        },
        {
          "internalType": "address",
          "name": "",
          "type": "address"
        }
      ],
      "name": "numCorrectPerBoardPerPlayer",
      "outputs": [
        {
          "internalType": "uint256",
          "name": "",
          "type": "uint256"
        }
      ],
      "stateMutability": "view",
      "type": "function"
    },
    {
      "inputs": [
        {
          "internalType": "uint256",
          "name": "seed",
          "type": "uint256"
        },
        {
          "internalType": "address",
          "name": "user",
          "type": "address"
        }
      ],
      "name": "viewNumCorrectPerBoardPerPlayer",
      "outputs": [
        {
          "internalType": "uint256",
          "name": "",
          "type": "uint256"
        }
      ],
      "stateMutability": "view",
      "type": "function"
    },
    {
      "inputs": [
        {
          "internalType": "uint256",
          "name": "",
          "type": "uint256"
        }
      ],
      "name": "winnerPerBoard",
      "outputs": [
        {
          "internalType": "address",
          "name": "",
          "type": "address"
        }
      ],
      "stateMutability": "view",
      "type": "function"
    }
  ],
  "transactionHash": "0xf4571a8b9fdd3a66e57f6b3fed5cdff28e6628c9f8dcc114a7c1d62680cab94c",
  "args": [],
  "numDeployments": 5,
  "solcInputHash": "f37da77760a766bc28920325b1cd4d3b",
  "bytecode": "0x6080604052348015600f57600080fd5b506115e18061001f6000396000f3fe608060405234801561001057600080fd5b50600436106100885760003560e01c8063713d9e8b1161005b578063713d9e8b14610111578063a7e7c78714610152578063bbffa7f314610175578063ee0144ab1461019557600080fd5b80630caab04a1461008d578063187604cc146100b35780632e5af06f146100de5780633bc8562a146100fe575b600080fd5b6100a061009b36600461120f565b6101a8565b6040519081526020015b60405180910390f35b6100a06100c136600461120f565b600360209081526000928352604080842090915290825290205481565b6100a06100ec36600461124b565b60006020819052908152604090205481565b6100a061010c3660046112a3565b6101d2565b61013a61011f36600461124b565b6001602052600090815260409020546001600160a01b031681565b6040516001600160a01b0390911681526020016100aa565b61016561016036600461130b565b61026c565b60405190151581526020016100aa565b61018861018336600461124b565b61039e565b6040516100aa9190611387565b6101656101a336600461124b565b61054b565b60008281526003602090815260408083206001600160a01b03851684529091529020545b92915050565b60006101dc611186565b6000805b600481101561026457828582600481106101fc576101fc6113e1565b602002015160048110610211576102116113e1565b602002015161025c5760018386836004811061022f5761022f6113e1565b602002015160048110610244576102446113e1565b91151560209092020152816102588161140d565b9250505b6001016101e0565b509392505050565b600061027883836105bf565b6000848152600260209081526040808320868452825280832033845290915290205460ff16156102aa57506000610397565b600084815260026020908152604080832086845282528083203384529091528120805460ff191660011790556102df8561039e565b90506102ec81858561061d565b156103915760006102fc85610f84565b9050610307816101d2565b600087815260036020908152604080832033845290915281208054909190610330908490611426565b909155505060008681526003602090815260408083203384528252808320548984529183905290912054101561038657600086815260036020908152604080832033845282528083205489845291839052909120555b600192505050610397565b60009150505b9392505050565b6103a66111a4565b6103ae6111d1565b60005b6101008110156103dc5780828261010081106103cf576103cf6113e1565b60200201526001016103b1565b5060006103ec6001610100611439565b90505b80156104c057600061040b85610406846001611426565b61103e565b905082816101008110610420576104206113e1565b602002015183836101008110610438576104386113e1565b602002015184846101008110610450576104506113e1565b6020020185846101008110610467576104676113e1565b60200201828152508281525050508482604051602001610491929190918252602082015260400190565b6040516020818303038152906040528051906020012060001c94505080806104b89061144c565b9150506103ef565b5060005b60078110156105445760005b600781101561053b5782816104e6600785611463565b6104f09190611426565b6101008110610501576105016113e1565b6020020151848360078110610518576105186113e1565b6020020151826007811061052e5761052e6113e1565b60200201526001016104d0565b506001016104c4565b5050919050565b6000818152600160205260408120546001600160a01b03161561057057506000919050565b6000828152600360209081526040808320338452909152902054600a111561059a57506000919050565b50600090815260016020819052604090912080546001600160a01b0319163317905590565b61010082106105cd57600080fd5b80516105d857600080fd5b6105e460076002611463565b8151106105f057600080fd5b60208101516105fe57600080fd5b61060a60076002611463565b60208201511061061957600080fd5b5050565b600061062983836105bf565b600061063484610f84565b835190915061064590600290611490565b60011480156106645750602083015161066090600290611490565b6001145b1561072e576000856002856001602002015161068091906114a4565b60078110610690576106906113e1565b602002015184516106a3906002906114a4565b600781106106b3576106b36113e1565b602002015190508085036106cc57600192505050610397565b6106d585611077565b94508085036106e957600192505050610397565b6106f285611077565b945080850361070657600192505050610397565b61070f85611077565b945080850361072357600192505050610397565b600092505050610397565b825161073c90600290611490565b1580156107575750602083015161075590600290611490565b155b15610ab057600085600160028682602002015161077491906114a4565b61077e9190611439565b6007811061078e5761078e6113e1565b602002015184516001906107a4906002906114a4565b6107ae9190611439565b600781106107be576107be6113e1565b6020020151905060006107d082610f84565b905060008760016002888260200201516107ea91906114a4565b6107f49190611439565b60078110610804576108046113e1565b60200201518651610817906002906114a4565b60078110610827576108276113e1565b60200201519050600061083982610f84565b90506000896002896001602002015161085291906114a4565b60078110610862576108626113e1565b60200201518851600190610878906002906114a4565b6108829190611439565b60078110610892576108926113e1565b6020020151905060006108a482610f84565b905060008b60028b600160200201516108bd91906114a4565b600781106108cd576108cd6113e1565b60200201518a516108e0906002906114a4565b600781106108f0576108f06113e1565b60200201519050600061090282610f84565b89516060890151919250148015610920575060208901516040860151145b8015610933575060408901516020840151145b8015610943575060608901518151145b1561095a5760019950505050505050505050610397565b6109638c611077565b9b5061096e8c610f84565b80516060890151919a5014801561098c575060208901516040860151145b801561099f575060408901516020840151145b80156109af575060608901518151145b156109c65760019950505050505050505050610397565b6109cf8c611077565b9b506109da8c610f84565b80516060890151919a501480156109f8575060208901516040860151145b8015610a0b575060408901516020840151145b8015610a1b575060608901518151145b15610a325760019950505050505050505050610397565b610a3b8c611077565b9b50610a468c610f84565b80516060890151919a50148015610a64575060208901516040860151145b8015610a77575060408901516020840151145b8015610a87575060608901518151145b15610a9e5760019950505050505050505050610397565b60009950505050505050505050610397565b8251610abe90600290611490565b6001148015610adb57506020830151610ad990600290611490565b155b15610d43576000856001600286826020020151610af891906114a4565b610b029190611439565b60078110610b1257610b126113e1565b60200201518451610b25906002906114a4565b60078110610b3557610b356113e1565b602002015190506000610b4782610f84565b905060008760028760016020020151610b6091906114a4565b60078110610b7057610b706113e1565b60200201518651610b83906002906114a4565b60078110610b9357610b936113e1565b602002015190506000610ba582610f84565b85516040850151919250148015610bc3575060208501516060840151145b8015610bd3575060408501518151145b8015610be6575060608501516020820151145b15610bf957600195505050505050610397565b610c0288611077565b9750610c0d88610f84565b80516040850151919650148015610c2b575060208501516060840151145b8015610c3b575060408501518151145b8015610c4e575060608501516020820151145b15610c6157600195505050505050610397565b610c6a88611077565b9750610c7588610f84565b80516040850151919650148015610c93575060208501516060840151145b8015610ca3575060408501518151145b8015610cb6575060608501516020820151145b15610cc957600195505050505050610397565b610cd288611077565b9750610cdd88610f84565b80516040850151919650148015610cfb575060208501516060840151145b8015610d0b575060408501518151145b8015610d22575060608501518160015b6020020151145b15610d3557600195505050505050610397565b600095505050505050610397565b60008560028560016020020151610d5a91906114a4565b60078110610d6a57610d6a6113e1565b60200201518451600190610d80906002906114a4565b610d8a9190611439565b60078110610d9a57610d9a6113e1565b602002015190506000610dac82610f84565b905060008760028760016020020151610dc591906114a4565b60078110610dd557610dd56113e1565b60200201518651610de8906002906114a4565b60078110610df857610df86113e1565b602002015190506000610e0a82610f84565b85516020850151919250148015610e25575060208501518151145b8015610e38575060408501516060840151145b8015610e4b575060608501516040820151145b15610e5e57600195505050505050610397565b610e6788611077565b9750610e7288610f84565b80516020850151919650148015610e8d575060208501518151145b8015610ea0575060408501516060840151145b8015610eb3575060608501516040820151145b15610ec657600195505050505050610397565b610ecf88611077565b9750610eda88610f84565b80516020850151919650148015610ef5575060208501518151145b8015610f08575060408501516060840151145b8015610f1b575060608501516040820151145b15610f2e57600195505050505050610397565b610f3788611077565b9750610f4288610f84565b80516020850151919650148015610f5d575060208501518151145b8015610f70575060408501516060840151145b8015610d2257506060850151816002610d1b565b610f8c611186565b6101008210610fec5760405162461bcd60e51b815260206004820152602160248201527f4e756d626572206d757374206265206265747765656e203020616e64203235356044820152601760f91b60648201526084015b60405180910390fd5b610ff4611186565b60005b60048110156110375761100b600485611490565b82826004811061101d5761101d6113e1565b602002015261102d6004856114a4565b9350600101610ff7565b5092915050565b6000818360405160200161105491815260200190565b6040516020818303038152906040528051906020012060001c6103979190611490565b60008061108383610f84565b905061108d611186565b602080830151825260608084015191830191909152604080840151918301919091528251908201526110be816110c6565b949350505050565b600080805b60048110156110375760048482600481106110e8576110e86113e1565b6020020151106111465760405162461bcd60e51b815260206004820152602360248201527f456163682076616c7565206d757374206265206265747765656e203020616e6460448201526210199760e91b6064820152608401610fe3565b61115181600461159f565b848260048110611163576111636113e1565b60200201516111729190611463565b61117c9083611426565b91506001016110cb565b60405180608001604052806004906020820280368337509192915050565b6040518060e001604052806007905b6111bb6111f1565b8152602001906001900390816111b35790505090565b604051806120000160405280610100906020820280368337509192915050565b6040518060e001604052806007906020820280368337509192915050565b6000806040838503121561122257600080fd5b8235915060208301356001600160a01b038116811461124057600080fd5b809150509250929050565b60006020828403121561125d57600080fd5b5035919050565b604051601f8201601f1916810167ffffffffffffffff8111828210171561129b57634e487b7160e01b600052604160045260246000fd5b604052919050565b6000608082840312156112b557600080fd5b600083601f8401126112c5578081fd5b806112d06080611264565b905080915060808401858111156112e657600080fd5b845b818110156113005780358452602093840193016112e8565b509095945050505050565b60008060006080848603121561132057600080fd5b83359250602084013591506000605f8501861361133b578081fd5b806113466040611264565b9050809150608086018781111561135c57600080fd5b604087015b81811015611379578035845260209384019301611361565b505080925050509250925092565b6106208101818360005b60078110156113d85781518360005b60078110156113bf5782518252602092830192909101906001016113a0565b50505060e0929092019160209190910190600101611391565b50505092915050565b634e487b7160e01b600052603260045260246000fd5b634e487b7160e01b600052601160045260246000fd5b60006001820161141f5761141f6113f7565b5060010190565b808201808211156101cc576101cc6113f7565b818103818111156101cc576101cc6113f7565b60008161145b5761145b6113f7565b506000190190565b80820281158282048414176101cc576101cc6113f7565b634e487b7160e01b600052601260045260246000fd5b60008261149f5761149f61147a565b500690565b6000826114b3576114b361147a565b500490565b6001815b60018411156114f3578085048111156114d7576114d76113f7565b60018416156114e557908102905b60019390931c9280026114bc565b935093915050565b60008261150a575060016101cc565b81611517575060006101cc565b816001811461152d576002811461153757611553565b60019150506101cc565b60ff841115611548576115486113f7565b50506001821b6101cc565b5060208310610133831016604e8410600b8410161715611576575081810a6101cc565b61158360001984846114b8565b8060001904821115611597576115976113f7565b029392505050565b600061039783836114fb56fea2646970667358221220f2e7b6abd6d16acd4cfc7cd671557150a38991e1970a51a5a37e409dcbe8462f64736f6c634300081c0033",
  "devdoc": {
    "kind": "dev",
    "methods": {},
    "version": 1
  },
  "userdoc": {
    "kind": "user",
    "methods": {},
    "version": 1
  },
  "storageLayout": {
    "storage": [
      {
        "astId": 40,
        "contract": "contracts/QuestionMarkGame.sol:QuestionMarkGame",
        "label": "maxNumCorrectPerBoard",
        "offset": 0,
        "slot": "0",
        "type": "t_mapping(t_uint256,t_uint256)"
      },
      {
        "astId": 44,
        "contract": "contracts/QuestionMarkGame.sol:QuestionMarkGame",
        "label": "winnerPerBoard",
        "offset": 0,
        "slot": "1",
        "type": "t_mapping(t_uint256,t_address)"
      },
      {
        "astId": 52,
        "contract": "contracts/QuestionMarkGame.sol:QuestionMarkGame",
        "label": "guessedPerBoardPerTargetCardPerPlayer",
        "offset": 0,
        "slot": "2",
        "type": "t_mapping(t_uint256,t_mapping(t_uint256,t_mapping(t_address,t_bool)))"
      },
      {
        "astId": 58,
        "contract": "contracts/QuestionMarkGame.sol:QuestionMarkGame",
        "label": "numCorrectPerBoardPerPlayer",
        "offset": 0,
        "slot": "3",
        "type": "t_mapping(t_uint256,t_mapping(t_address,t_uint256))"
      }
    ],
    "types": {
      "t_address": {
        "encoding": "inplace",
        "label": "address",
        "numberOfBytes": "20"
      },
      "t_bool": {
        "encoding": "inplace",
        "label": "bool",
        "numberOfBytes": "1"
      },
      "t_mapping(t_address,t_bool)": {
        "encoding": "mapping",
        "key": "t_address",
        "label": "mapping(address => bool)",
        "numberOfBytes": "32",
        "value": "t_bool"
      },
      "t_mapping(t_address,t_uint256)": {
        "encoding": "mapping",
        "key": "t_address",
        "label": "mapping(address => uint256)",
        "numberOfBytes": "32",
        "value": "t_uint256"
      },
      "t_mapping(t_uint256,t_address)": {
        "encoding": "mapping",
        "key": "t_uint256",
        "label": "mapping(uint256 => address)",
        "numberOfBytes": "32",
        "value": "t_address"
      },
      "t_mapping(t_uint256,t_mapping(t_address,t_bool))": {
        "encoding": "mapping",
        "key": "t_uint256",
        "label": "mapping(uint256 => mapping(address => bool))",
        "numberOfBytes": "32",
        "value": "t_mapping(t_address,t_bool)"
      },
      "t_mapping(t_uint256,t_mapping(t_address,t_uint256))": {
        "encoding": "mapping",
        "key": "t_uint256",
        "label": "mapping(uint256 => mapping(address => uint256))",
        "numberOfBytes": "32",
        "value": "t_mapping(t_address,t_uint256)"
      },
      "t_mapping(t_uint256,t_mapping(t_uint256,t_mapping(t_address,t_bool)))": {
        "encoding": "mapping",
        "key": "t_uint256",
        "label": "mapping(uint256 => mapping(uint256 => mapping(address => bool)))",
        "numberOfBytes": "32",
        "value": "t_mapping(t_uint256,t_mapping(t_address,t_bool))"
      },
      "t_mapping(t_uint256,t_uint256)": {
        "encoding": "mapping",
        "key": "t_uint256",
        "label": "mapping(uint256 => uint256)",
        "numberOfBytes": "32",
        "value": "t_uint256"
      },
      "t_uint256": {
        "encoding": "inplace",
        "label": "uint256",
        "numberOfBytes": "32"
      }
    }
  }
}