{
  "address": "0xb1463d8BA1908464B0A193269baD7313b97c2Cf5",
  "abi": [
    {
      "inputs": [
        {
          "internalType": "uint256",
          "name": "seed",
          "type": "uint256"
        }
      ],
      "name": "claimWin",
      "outputs": [],
      "stateMutability": "nonpayable",
      "type": "function"
    },
    {
      "inputs": [
        {
          "internalType": "uint256",
          "name": "seed",
          "type": "uint256"
        }
      ],
      "name": "generatePermutation",
      "outputs": [
        {
          "internalType": "uint256[7][7]",
          "name": "board",
          "type": "uint256[7][7]"
        }
      ],
      "stateMutability": "pure",
      "type": "function"
    },
    {
      "inputs": [
        {
          "internalType": "uint256",
          "name": "seed",
          "type": "uint256"
        },
        {
          "internalType": "uint256",
          "name": "targetCard",
          "type": "uint256"
        },
        {
          "internalType": "uint256[2]",
          "name": "guessCoordinates",
          "type": "uint256[2]"
        }
      ],
      "name": "guess",
      "outputs": [],
      "stateMutability": "nonpayable",
      "type": "function"
    },
    {
      "inputs": [
        {
          "internalType": "uint256",
          "name": "",
          "type": "uint256"
        },
        {
          "internalType": "address",
          "name": "",
          "type": "address"
        }
      ],
      "name": "numCorrectPerBoardPerPlayer",
      "outputs": [
        {
          "internalType": "uint256",
          "name": "",
          "type": "uint256"
        }
      ],
      "stateMutability": "view",
      "type": "function"
    },
    {
      "inputs": [
        {
          "internalType": "uint256",
          "name": "seed",
          "type": "uint256"
        }
      ],
      "name": "viewNumCorrectPerBoardPerPlayer",
      "outputs": [
        {
          "internalType": "uint256",
          "name": "",
          "type": "uint256"
        }
      ],
      "stateMutability": "view",
      "type": "function"
    },
    {
      "inputs": [
        {
          "internalType": "uint256",
          "name": "",
          "type": "uint256"
        }
      ],
      "name": "winnerPerBoard",
      "outputs": [
        {
          "internalType": "address",
          "name": "",
          "type": "address"
        }
      ],
      "stateMutability": "view",
      "type": "function"
    }
  ],
  "transactionHash": "0xcc4513a828253da15126b0d16594d2807f6f8ecde38ddef954f768e49c60e9a8",
  "args": [],
  "numDeployments": 2,
  "solcInputHash": "ffb9a3086e75795e739474b8638686f4",
  "bytecode": "0x6080604052348015600f57600080fd5b5061193f8061001f6000396000f3fe608060405234801561001057600080fd5b50600436106100625760003560e01c8063187604cc14610067578063713d9e8b146100a5578063a7e7c787146100e6578063b7507764146100fb578063bbffa7f31461010e578063ee0144ab1461012e575b600080fd5b61009261007536600461139a565b600260209081526000928352604080842090915290825290205481565b6040519081526020015b60405180910390f35b6100ce6100b33660046113d6565b6000602081905290815260409020546001600160a01b031681565b6040516001600160a01b03909116815260200161009c565b6100f96100f4366004611405565b610141565b005b6100926101093660046113d6565b610454565b61012161011c3660046113d6565b6104f3565b60405161009c9190611497565b6100f961013c3660046113d6565b6106a0565b6101746040518060400160405280601181526020017033bab2b9b9961036b9b39739b2b73232b960791b81525033610704565b6101a16040518060400160405280600b81526020016a19dd595cdccb081cd9595960aa1b8152508461074d565b6101d46040518060400160405280601181526020017019dd595cdccb081d185c99d95d10d85c99607a1b8152508361074d565b60408051808201909152601a81527f67756573732c206775657373436f6f7264696e617465735b305d000000000000602082015261021a908260005b602002015161074d565b60408051808201909152601a81527f67756573732c206775657373436f6f7264696e617465735b315d000000000000602082015261025a90826001610210565b61029560405180606001604052806034815260200161178e60349139600085815260026020908152604080832033845290915290205461074d565b61029f8282610792565b6102d26040518060400160405280601281526020017167756573732c20616674657220636865636b60701b815250610967565b6000838152600160209081526040808320858452825280832033845290915290205460ff161561030157505050565b6103386040518060400160405280601681526020017519dd595cdccb081b9bdd0819dd595cdcd959081e595d60521b815250610967565b600083815260016020818152604080842086855282528084203385529091528220805460ff1916909117905561036d846104f3565b905061037a8184846109ad565b1561044e576103ae6040518060400160405280600e81526020016d19dd595cdccb0818dbdc9c9958dd60921b815250610967565b6103e960405180606001604052806034815260200161178e60349139600086815260026020908152604080832033845290915290205461074d565b6000848152600260209081526040808320338452909152812080549161040e8361151d565b919050555061044e60405180606001604052806034815260200161178e60349139600086815260026020908152604080832033845290915290205461074d565b50505050565b600061047860405180606001604052806025815260200161169c602591398361074d565b61049a6040518060600160405280602b81526020016118df602b913933610704565b6104d56040518060800160405280604e81526020016117c2604e9139600084815260026020908152604080832033845290915290205461074d565b50600090815260026020908152604080832033845290915290205490565b6104fb611311565b61050361133e565b60005b610100811015610531578082826101008110610524576105246114f1565b6020020152600101610506565b5060006105416001610100611536565b90505b80156106155760006105608561055b846001611549565b6111f0565b905082816101008110610575576105756114f1565b60200201518383610100811061058d5761058d6114f1565b6020020151848461010081106105a5576105a56114f1565b60200201858461010081106105bc576105bc6114f1565b602002018281525082815250505084826040516020016105e6929190918252602082015260400190565b6040516020818303038152906040528051906020012060001c945050808061060d9061155c565b915050610544565b5060005b60078110156106995760005b600781101561069057828161063b600785611573565b6106459190611549565b6101008110610656576106566114f1565b602002015184836007811061066d5761066d6114f1565b60200201518260078110610683576106836114f1565b6020020152600101610625565b50600101610619565b5050919050565b6000818152602081905260409020546001600160a01b03166106bf5750565b6000818152600260209081526040808320338452909152902054600a11156106e45750565b600090815260208190526040902080546001600160a01b03191633179055565b610749828260405160240161071a9291906115d0565b60408051601f198184030181529190526020810180516001600160e01b031663319af33360e01b179052611232565b5050565b61074982826040516024016107639291906115fa565b60408051601f198184030181529190526020810180516001600160e01b0316632d839cb360e21b179052611232565b6107c56040518060400160405280601181526020017018da1958dacb081d185c99d95d10d85c99607a1b8152508361074d565b60408051808201909152601a81527f636865636b2c206775657373436f6f7264696e617465735b305d000000000000602082015261080590826000610210565b60408051808201909152601a81527f636865636b2c206775657373436f6f7264696e617465735b315d000000000000602082015261084590826001610210565b610100821061087f5760405162461bcd60e51b81526020600482015260016024820152604160f81b60448201526064015b60405180910390fd5b80516108b15760405162461bcd60e51b81526020600482015260016024820152602160f91b6044820152606401610876565b6108bd60076002611573565b8151106108f05760405162461bcd60e51b81526020600482015260016024820152604360f81b6044820152606401610876565b60208101516109255760405162461bcd60e51b81526020600482015260016024820152601160fa1b6044820152606401610876565b61093160076002611573565b6020820151106107495760405162461bcd60e51b81526020600482015260016024820152604560f81b6044820152606401610876565b6109aa8160405160240161097b919061161c565b60408051601f198184030181529190526020810180516001600160e01b031663104c13eb60e21b179052611232565b50565b60006109ee6040518060400160405280601a81526020017f69734775657373436f72726563742c20746172676574436172640000000000008152508461074d565b610a126040518060600160405280602381526020016118bc60239139836000610210565b610a3660405180606001604052806023815260200161184460239139836001610210565b60408051808201909152601881527f69734775657373436f72726563742c20302c302063617264000000000000000060208201528451610a7891906000610210565b610a828383610792565b610ac06040518060400160405280601b81526020017f69734775657373436f72726563742c20616674657220636865636b0000000000815250610967565b6000610acb8461123b565b9050610af16040518060600160405280602d815260200161172a602d9139826000610210565b610b156040518060600160405280602e815260200161166e602e9139826001610210565b610b396040518060600160405280602b8152602001611891602b9139826003610210565b610b5d6040518060600160405280602a8152602001611867602a9139826002610210565b610b926040518060600160405280603681526020016116f460369139610b8b8760005b60200201515161123b565b6000610210565b610bc060405180606001604052806037815260200161175760379139610bb9876000610b80565b6001610210565b610bee60405180606001604052806034815260200161181060349139610be7876000610b80565b6003610210565b610c1c6040518060600160405280603381526020016116c160339139610c15876000610b80565b6002610210565b8251610c2a90600290611645565b6001148015610c4957506020830151610c4590600290611645565b6001145b15610cdc57610c816040518060400160405280601281526020017169734775657373436f72726563742c20633160701b815250610967565b60008560028560016020020151610c989190611659565b60078110610ca857610ca86114f1565b60200201518451610cbb90600290611659565b60078110610ccb57610ccb6114f1565b6020020151851492506111e9915050565b8251610cea90600290611645565b158015610d0557506020830151610d0390600290611645565b155b15610f3457610d3d6040518060400160405280601281526020017134b9a3bab2b9b9a1b7b93932b1ba1610319960711b815250610967565b6000856001600286826020020151610d559190611659565b610d5f9190611536565b60078110610d6f57610d6f6114f1565b60200201518451600190610d8590600290611659565b610d8f9190611536565b60078110610d9f57610d9f6114f1565b602002015190506000610db18261123b565b90506000876001600288826020020151610dcb9190611659565b610dd59190611536565b60078110610de557610de56114f1565b60200201518651610df890600290611659565b60078110610e0857610e086114f1565b602002015190506000610e1a8261123b565b905060008960028960016020020151610e339190611659565b60078110610e4357610e436114f1565b60200201518851600190610e5990600290611659565b610e639190611536565b60078110610e7357610e736114f1565b602002015190506000610e858261123b565b905060008b60028b60016020020151610e9e9190611659565b60078110610eae57610eae6114f1565b60200201518a51610ec190600290611659565b60078110610ed157610ed16114f1565b602002015190506000610ee38261123b565b89516060890151919250148015610f01575060208901516040860151145b8015610f14575060408901516020840151145b8015610f24575060608901518151145b99505050505050505050506111e9565b8251610f4290600290611645565b6001148015610f5f57506020830151610f5d90600290611645565b155b156110ad57610f976040518060400160405280601281526020017169734775657373436f72726563742c20633360701b815250610967565b6000856001600286826020020151610faf9190611659565b610fb99190611536565b60078110610fc957610fc96114f1565b60200201518451610fdc90600290611659565b60078110610fec57610fec6114f1565b602002015190506000610ffe8261123b565b9050600087600287600160200201516110179190611659565b60078110611027576110276114f1565b6020020151865161103a90600290611659565b6007811061104a5761104a6114f1565b60200201519050600061105c8261123b565b8551604085015191925014801561107a575060208501516060840151145b801561108a575060408501518151145b80156110a1575060608501518160015b6020020151145b955050505050506111e9565b6110e0604051806040016040528060128152602001711a5cd1dd595cdcd0dbdc9c9958dd0b0818cd60721b815250610967565b600085600285600160200201516110f79190611659565b60078110611107576111076114f1565b6020020151845160019061111d90600290611659565b6111279190611536565b60078110611137576111376114f1565b6020020151905060006111498261123b565b9050600087600287600160200201516111629190611659565b60078110611172576111726114f1565b6020020151865161118590600290611659565b60078110611195576111956114f1565b6020020151905060006111a78261123b565b855160208501519192501480156111c2575060208501518151145b80156111d5575060408501516060840151145b80156110a15750606085015181600261109a565b9392505050565b6000818360405160200161120691815260200190565b6040516020818303038152906040528051906020012060001c6112299190611645565b90505b92915050565b6109aa816112f0565b61124361135e565b610100821061129e5760405162461bcd60e51b815260206004820152602160248201527f4e756d626572206d757374206265206265747765656e203020616e64203235356044820152601760f91b6064820152608401610876565b6112a661135e565b60005b60048110156112e9576112bd600485611645565b8282600481106112cf576112cf6114f1565b60200201526112df600485611659565b93506001016112a9565b5092915050565b60006a636f6e736f6c652e6c6f679050600080835160208501845afa505050565b6040518060e001604052806007905b61132861137c565b8152602001906001900390816113205790505090565b604051806120000160405280610100906020820280368337509192915050565b60405180608001604052806004906020820280368337509192915050565b6040518060e001604052806007906020820280368337509192915050565b600080604083850312156113ad57600080fd5b8235915060208301356001600160a01b03811681146113cb57600080fd5b809150509250929050565b6000602082840312156113e857600080fd5b5035919050565b634e487b7160e01b600052604160045260246000fd5b60008060006080848603121561141a57600080fd5b8335925060208401359150605f8401851361143457600080fd5b6040516040810181811067ffffffffffffffff82111715611457576114576113ef565b60405280608086018781111561146c57600080fd5b604087015b81811015611489578035835260209283019201611471565b505050809150509250925092565b6106208101818360005b60078110156114e85781518360005b60078110156114cf5782518252602092830192909101906001016114b0565b50505060e09290920191602091909101906001016114a1565b50505092915050565b634e487b7160e01b600052603260045260246000fd5b634e487b7160e01b600052601160045260246000fd5b60006001820161152f5761152f611507565b5060010190565b8181038181111561122c5761122c611507565b8082018082111561122c5761122c611507565b60008161156b5761156b611507565b506000190190565b808202811582820484141761122c5761122c611507565b6000815180845260005b818110156115b057602081850181015186830182015201611594565b506000602082860101526020601f19601f83011685010191505092915050565b6040815260006115e3604083018561158a565b905060018060a01b03831660208301529392505050565b60408152600061160d604083018561158a565b90508260208301529392505050565b602081526000611229602083018461158a565b634e487b7160e01b600052601260045260246000fd5b6000826116545761165461162f565b500690565b6000826116685761166861162f565b50049056fe69734775657373436f72726563742c207461726765744361726456616c7565735b424f54544f4d5f52494748545d766965774e756d436f7272656374506572426f617264506572506c617965722c207365656469734775657373436f72726563742c206e756d626572546f4361726428626f6172645b305d5b305d295b544f505f4c4546545d69734775657373436f72726563742c206e756d626572546f4361726428626f6172645b305d5b305d295b424f54544f4d5f4c4546545d69734775657373436f72726563742c207461726765744361726456616c7565735b424f54544f4d5f4c4546545d69734775657373436f72726563742c206e756d626572546f4361726428626f6172645b305d5b305d295b424f54544f4d5f52494748545d67756573732c206e756d436f7272656374506572426f617264506572506c617965725b736565645d5b6d73672e73656e6465725d766965774e756d436f7272656374506572426f617264506572506c617965722c206e756d436f7272656374506572426f617264506572506c617965725b736565645d5b6d73672e73656e6465725d69734775657373436f72726563742c206e756d626572546f4361726428626f6172645b305d5b305d295b544f505f52494748545d69734775657373436f72726563742c206775657373436f6f7264696e617465735b315d69734775657373436f72726563742c207461726765744361726456616c7565735b544f505f4c4546545d69734775657373436f72726563742c207461726765744361726456616c7565735b544f505f52494748545d69734775657373436f72726563742c206775657373436f6f7264696e617465735b305d766965774e756d436f7272656374506572426f617264506572506c617965722c206d73672e73656e646572a26469706673582212201876d21c5641c862e23cbf51c4a4e95dd308fe4ef6c6e2750844f108e06d848264736f6c634300081c0033",
  "devdoc": {
    "kind": "dev",
    "methods": {},
    "version": 1
  },
  "userdoc": {
    "kind": "user",
    "methods": {},
    "version": 1
  },
  "storageLayout": {
    "storage": [
      {
        "astId": 41,
        "contract": "contracts/QuestionMarkGame.sol:QuestionMarkGame",
        "label": "winnerPerBoard",
        "offset": 0,
        "slot": "0",
        "type": "t_mapping(t_uint256,t_address)"
      },
      {
        "astId": 49,
        "contract": "contracts/QuestionMarkGame.sol:QuestionMarkGame",
        "label": "guessedPerBoardPerTargetCardPerPlayer",
        "offset": 0,
        "slot": "1",
        "type": "t_mapping(t_uint256,t_mapping(t_uint256,t_mapping(t_address,t_bool)))"
      },
      {
        "astId": 55,
        "contract": "contracts/QuestionMarkGame.sol:QuestionMarkGame",
        "label": "numCorrectPerBoardPerPlayer",
        "offset": 0,
        "slot": "2",
        "type": "t_mapping(t_uint256,t_mapping(t_address,t_uint256))"
      }
    ],
    "types": {
      "t_address": {
        "encoding": "inplace",
        "label": "address",
        "numberOfBytes": "20"
      },
      "t_bool": {
        "encoding": "inplace",
        "label": "bool",
        "numberOfBytes": "1"
      },
      "t_mapping(t_address,t_bool)": {
        "encoding": "mapping",
        "key": "t_address",
        "label": "mapping(address => bool)",
        "numberOfBytes": "32",
        "value": "t_bool"
      },
      "t_mapping(t_address,t_uint256)": {
        "encoding": "mapping",
        "key": "t_address",
        "label": "mapping(address => uint256)",
        "numberOfBytes": "32",
        "value": "t_uint256"
      },
      "t_mapping(t_uint256,t_address)": {
        "encoding": "mapping",
        "key": "t_uint256",
        "label": "mapping(uint256 => address)",
        "numberOfBytes": "32",
        "value": "t_address"
      },
      "t_mapping(t_uint256,t_mapping(t_address,t_bool))": {
        "encoding": "mapping",
        "key": "t_uint256",
        "label": "mapping(uint256 => mapping(address => bool))",
        "numberOfBytes": "32",
        "value": "t_mapping(t_address,t_bool)"
      },
      "t_mapping(t_uint256,t_mapping(t_address,t_uint256))": {
        "encoding": "mapping",
        "key": "t_uint256",
        "label": "mapping(uint256 => mapping(address => uint256))",
        "numberOfBytes": "32",
        "value": "t_mapping(t_address,t_uint256)"
      },
      "t_mapping(t_uint256,t_mapping(t_uint256,t_mapping(t_address,t_bool)))": {
        "encoding": "mapping",
        "key": "t_uint256",
        "label": "mapping(uint256 => mapping(uint256 => mapping(address => bool)))",
        "numberOfBytes": "32",
        "value": "t_mapping(t_uint256,t_mapping(t_address,t_bool))"
      },
      "t_uint256": {
        "encoding": "inplace",
        "label": "uint256",
        "numberOfBytes": "32"
      }
    }
  }
}